S00C0000554152542E73726563DC
S11300000C9434000C9449000C9449000C9449005D
S11300100C9449000C9449000C9449000C94490038
S11300200C9449000C9449000C9449000C94490028
S11300300C9449000C9449000C9449000C94490018
S11300400C9449000C9449000C9449000C94490008
S11300500C9449000C9449000C9449000C944900F8
S11300600C9449000C94490011241FBECFEFD8E032
S1130070DEBFCDBF12E0A0E0B1E0EAE2F4E002C0EE
S113008005900D92AE31B107D9F70E9444010C944A
S113009013020C9400001092C50087E68093C400FC
S11300A088E18093C10086E08093C2000895909116
S11300B0C00095FFFCCF8093C6000895CF93DF93D3
S11300C0EC0103C021960E94570088818111FACF68
S11300D0DF91CF91089584B1866084B98AB1886232
S11300E08AB982EA809380008AE1809381008FE359
S11300F09CE9909387008093860088EB9BE0909323
S113010089008093880090938B0080938A0093E207
S113011094BD85E085BD86E288BD9093B00097E0EC
S11301209093B1008093B4000895653B08F064EBAC
S11301308130C9F028F0823049F1833091F108957B
S1130140262F30E0A2EBBCE00E94C10124EB30E09A
S113015040E050E00E949F012053384F30938900C3
S1130160209388000895262F30E0A2EBBCE00E9483
S1130170C10124EB30E040E050E00E949F01205395
S1130180384F30938B0020938A00089523E2629FB6
S1130190C001112464EB70E00E948B016C5E68BDA9
S11301A0089523E2629FC0011124E4EBF0E0BF0153
S11301B00E948B016C5E60830895EF92FF921F93FF
S11301C0CF93DF93EC0160E071E00E940202892B7F
S11301D0C9F485E091E00E945E008BE191E00E9409
S11301E05E0089E391E00E945E0087E591E00E9451
S11301F05E0087E791E00E945E0083E991E00E943F
S11302005E003CC08881833571F519811153143027
S113021050F58A818D3339F5FE0101900020E9F70C
S11302203197EC1BFD0B3497F0F07E0183E0E80E70
S1130230F11CC7010E94E401682F812F0E949500E0
S11302408AEA91E00E945E0089810E94570088EB4F
S113025091E00E945E00C7010E945E008FE891E079
S11302600E945E000BC08CEB91E00E945E00CE0108
S11302700E945E008BE192E00E945E00DF91CF91CC
S11302801F91FF90EF900895CF93DF93CDB7DEB722
S113029060970FB6F894DEBF0FBECDBF0E944B002F
S11302A00E946B008DED91E00E945E0088EF91E06A
S11302B00E945E0000E08091C0008823E4F7109162
S11302C0C6001D3029F01A3019F0812F0E94570002
S11302D01D3011F01A3079F4E1E0F0E0EC0FFD1F6D
S11302E0E00FF11D1082002331F3CE0101960E942C
S11302F0DD0000E0E0CF0F30F0F68FE9810F8A31A6
S113030008F41052E1E0F0E0EC0FFD1FE00FF11DE6
S113031010830F5FD0CF97FB072E16F4009407D0FD
S113032077FD09D00E94D00107FC05D03EF49095DA
S113033081959F4F0895709561957F4F0895A1E22F
S11303401A2EAA1BBB1BFD010DC0AA1FBB1FEE1F4B
S1130350FF1FA217B307E407F50720F0A21BB30B96
S1130360E40BF50B661F771F881F991F1A9469F712
S113037060957095809590959B01AC01BD01CF016E
S11303800895A29FB001B39FC001A39F700D811D6A
S11303901124911DB29F700D811D1124911D08958A
S11303A0AA1BBB1B51E107C0AA1FBB1FA617B70797
S11303B010F0A61BB70B881F991F5A95A9F78095B3
S11303C09095BC01CD010895FC0188279927E894F4
S11303D021912032E9F3293010F02E30C8F32B326A
S11303E041F02D3239F4689404C00E940B02820F4C
S11303F0911D219120532A30C0F31EF490958195CC
S11304009F4F0895FB01DC018D910190801901102B
S1130410D9F3990B08957AE0979F902D879F802DAB
S10D0420910D11240895F894FFCF04
S113042A48454C50000D0A436F6D616E646F73202A
S113043A76616C69646F733A0D0A0053313D393041
S113044A202D204D7565766520736572766F20318F
S113045A2061203930B00D0A0053323D3435202D45
S113046A204D7565766520736572766F203220613A
S113047A203435B00D0A0053333D313830202D2055
S113048A4D7565766520736572766F203320612019
S113049A313830B00D0A0053343D30202D204D75CB
S11304AA65766520736572766F203420612030B0DA
S11304BA0D0A0048454C50202D204D756573747201
S11304CA612061797564610D0A000D0A4F4B202D74
S11304DA20536572766F2000206120000D0A455270
S11304EA524F523A20436F6D616E646F206E6F20D3
S11304FA7265636F6E6F6369646F3A20000D0A5305
S113050A697374656D6120646520736572766F73AF
S113051A20554152540D0A00436F6D616E646F7326
S113052A3A2053313D39302C2053323D34352C2076
S111053A6574632028302D313830290D0A00F5
S9030000FC
