:100000000C9434000C9451000C9451000C94510049
:100010000C9451000C9451000C9451000C9451001C
:100020000C9451000C9451000C9451000C9451000C
:100030000C9451000C9451000C9451000C945100FC
:100040000C941F010C9451000C9451000C9451001D
:100050000C9451000C94BE010C9451000C9451006E
:100060000C9451000C94510011241FBECFEFD8E026
:10007000DEBFCDBF11E0A0E0B1E0E2EEF3E002C0F0
:1000800005900D92A031B107D9F721E0A0E1B1E0D0
:1000900001C01D92AB31B207E1F70E940B010C9435
:1000A000EF010C9400008091190180FF04C085B11C
:1000B000806185B903C085B18F7E85B980911901B2
:1000C00081FF04C085B1806285B903C085B18F7D91
:1000D00085B98091190182FF04C088B1816088B917
:1000E00003C088B18E7F88B98091190183FF04C055
:1000F00088B1826088B903C088B18D7F88B980914A
:10010000190184FF04C088B1846088B903C088B134
:100110008B7F88B98091190185FF04C088B1886000
:1001200088B903C088B1877F88B98091190186FF9B
:1001300004C088B1806188B903C088B18F7E88B956
:1001400080911901882324F488B1806288B90895C8
:1001500088B18F7D88B9089585B18C7F85B98091EC
:10016000140181110BC0E0911001F0E0E050FF4F4D
:1001700080818BB985B1816085B90AC0E091110198
:10018000F0E0E050FF4F80818BB985B1826085B986
:1001900081E090911401911180E080931401089501
:1001A000CF93DF93F894E0E1F1E010821182109296
:1001B000190110921301109212011092140184B1CE
:1001C000806384B987B18F6387B98FEF8AB984B1AF
:1001D000836084B985B1837F85B914BC85E085BD12
:1001E00084E686BD81E080936E0086E480937C0087
:1001F000CAE7D0E08FE8888310921A0110921401A8
:100200000E9453000E94AC008881806488837894A7
:10021000DF91CF9108950E94D000FFCF809112010D
:10022000909113019695879596958795E0E1F1E079
:10023000982F9F70908382958F70818308951F926D
:100240000F920FB60F9211242F933F934F935F930A
:100250006F937F938F939F93AF93BF93EF93FF938E
:1002600084E686BD80911A018F5F80931A010E94F7
:10027000AC0080911A01882309F46FC010921A0112
:100280001B9B06C080911601833020F080E003C0E4
:1002900080E001C081E0882359F0809116018F5FD2
:1002A000809316018330A9F481E08093180111C076
:1002B0001B9904C090911601911181E0882349F0A7
:1002C00080911601815080931601811102C0109215
:1002D00018011A9B06C080911501833020F080E040
:1002E00003C080E001C081E0882359F080911501AE
:1002F0008F5F809315018330A9F481E0809317010B
:1003000011C01A9904C090911501911181E08823C0
:1003100049F080911501815080931501811102C02F
:100320001092170180911801882351F080911901D2
:100330008F5F809319010E945300109218010DC025
:1003400080911701882349F0809119018150809391
:1003500019010E94530010921701FF91EF91BF9174
:10036000AF919F918F917F916F915F914F913F914D
:100370002F910F900FBE0F901F9018951F920F9204
:100380000FB60F9211242F933F934F935F936F9368
:100390007F938F939F93AF93BF93EF93FF9380913E
:1003A00078009091790090931301809312010E943C
:1003B0000E01EAE7F0E0808180648083FF91EF9195
:1003C000BF91AF919F918F917F916F915F914F916D
:1003D0003F912F910F900FBE0F901F901895F8949A
:0203E000FFCF4D
:1003E2003F065B4F666D7D077F6F777C395E797163
:00000001FF
