:020000020000FC
:040000000C942D002F
:100040000C94BB023F065B4F666D7D077F6F1F1CE4
:100050001F1E1F1E1F1F1E1F1E1F0FEF0DBF08E0BC
:100060000EBF0FEF0AB90FE104B900E007B901E0D4
:100070000093000101E00093010100E00093020100
:10008000009303010093040100930501009306010E
:100090000093070101E00093080100930901009318
:1000A0000A0100E000930B0100930C0100930D0185
:1000B00000930E0100930F0110E020E030E040E0DB
:1000C0000E94B3027894419A0E947402419806B14A
:1000D00002FF1EC000910801003051F0013061F0B4
:1000E000023071F0033081F000E00093080110C08D
:1000F00001E0009308010CC002E00093080108C071
:1001000003E00093080104C004E00093080100C06C
:1001100000910801003049F0013051F0023059F0EF
:10012000033061F0043069F0CECF0E94A400CBCF41
:100130000E94D800C8CF0E94E400C5CF0E9472017F
:10014000C2CF0E94E601BFCF009100010E949C0235
:10015000302F009100010E94A502402F0091010163
:100160000E949C02502F009101010E94A502602F65
:10017000032F0E9496022B9A0E94AB022B98042F09
:100180000E9496022A9A0E94AB022A98052F0E948A
:100190009602299A0E94AB022998062F0E94960285
:1001A000289A0E94AB0228982D984098419808956B
:1001B0000E942D030E945B030E9468030E94750346
:1001C0002D98409841980895009105010E9496024B
:1001D0002B9A0E94AB022B98009104010E94960278
:1001E0002A9A0E94AB022A98009103010E9496026B
:1001F000299A0E94AB022998009102010E9496025E
:10020000289A0E94AB0228982D984098419A06B1EE
:1002100004FF0E940F0105FF0E94400108950E9403
:10022000AF0200910201093021F003950093020111
:10023000089500E00093020100910301053021F0D0
:10024000039500930301089500E0009303010091DA
:100250000401093021F0039500930401089500E0A2
:100260000093040100910501023021F003950093F1
:100270000501089500E0009305010093040108952D
:100280000E94AF0200910201003021F00A95009314
:100290000201089509E0009302010091030100307A
:1002A00021F00A9500930301089505E000930301EE
:1002B00000910401003021F00A9500930401089593
:1002C00009E00093040100910501003021F00A9536
:1002D00000930501089502E00093050103E00093F7
:1002E00004010895009100010E949C02302F0091AA
:1002F00000010E94A502402F009101010E949C0272
:10030000502F009101010E94A502602F032F0E942F
:1003100096022B9A0E94AB022B98042F0E94960201
:100320002A9A0E94AB022A98052F0E949602299AC7
:100330000E94AB022998062F0E949602289A0E94DA
:10034000AB0228982D98409A419806B104FF0E946C
:10035000AD0105FF0E94B70108950E94AF02009110
:1003600000010395009300010E94C50108950E94B9
:10037000AF02009100010A9500930001003021F4C2
:100380000E94DE01009300010895009101010A9589
:10039000F0E0EEE4E00F149100910001011768F025
:1003A00001E0009300010091010103950093010118
:1003B0000D3018F001E00093010108950091010152
:1003C0000A95F0E0EEE4E00F0491089500910E012B
:1003D0000E9496022B9A0E94AB022B9800910D016D
:1003E0000E9496022A9A0E94AB022A9800910C0160
:1003F0000E949602299A0E94AB02299800910B0153
:100400000E949602289A0E94AB0228982D9A409842
:10041000419806B104FF0E94110205FF0E944202AA
:1004200008950E94AF0200910B01093021F003955D
:1004300000930B01089500E000930B0100910C0163
:10044000053021F0039500930C01089500E000931E
:100450000C0100910D01093021F0039500930D016D
:10046000089500E000930D0100910E01023021F08B
:10047000039500930E01089500E000930E01009390
:100480000D0108950E94AF0200910B01003021F090
:100490000A9500930B01089509E000930B01009168
:1004A0000C01003021F00A9500930C01089505E03D
:1004B00000930C0100910D01003021F00A9500938A
:1004C0000D01089509E000930D0100910E01003027
:1004D00021F00A9500930E01089502E000930E01A9
:1004E00003E000930D01089500910F010130E1F444
:1004F0000091050110910E010117B1F40091040162
:1005000010910D01011781F40091030110910C016C
:10051000011751F40091020110910B01011721F410
:100520005F9A0E94AB0208955F980895F0E0E4E4BA
:10053000E00F04910BB908951AE022272395011BBF
:10054000E8F72A95010F022F08951AE00A3010F0FB
:10055000011BFCCF089502E30A95F1F708958FEF90
:100560008A95F1F7089505E005BD00E006BD01E0BC
:1005700000936E0008950F930FB70F9300E006BD30
:10058000009106010395009306010D3379F400E014
:1005900000930601009107010395009307010C33B6
:1005A00029F400E0009307010E94EB02009106018C
:1005B0000E3169F400910901003029F02C9800E017
:1005C0000093090104C02C9A01E0009309010F91E6
:1005D0000FBF0F91189500910201093021F003958A
:1005E00000930201089500E00093020100910301CD
:1005F000053021F0039500930301089500E0009376
:10060000030100910501023041F40091040103301F
:10061000D9F0039500930401089500910401093075
:1006200021F0039500930401089500E00093040174
:1006300000910501013021F0039500930501089513
:1006400002E000930501089500E00093040100E03A
:10065000009305010E943A0308952B982A9829983F
:10066000289810910201F0E0E4E4E10F14911BB925
:10067000289A0895009101010A95F0E0EEE4E00F58
:100680001491013001F400910001011770F001E0B4
:1006900000930001009101010395009301010D30C9
:1006A00048F001E00093010105C0009100010395AD
:1006B0000093000108952B982A9829982898209152
:1006C0000301F0E0E4E4E20F24912BB9299A0895A4
:1006D0002B982A982998289810910401F0E0E4E4D6
:1006E000E10F14911BB92A9A08952B982A982998FA
:1006F000289820910501F0E0E4E4E20F24912BB961
:040700002B9A089593
:00000001FF
