:100000000C9434000C9446000C9446000C9446006A
:100010000C9446000C9446000C9446000C94460048
:100020000C9446000C9446000C9446000C94460038
:100030000C9446000C9446000C9446000C94460028
:100040000C9446000C9446000C9472000C944600EC
:100050000C9446000C9446000C9446000C94460008
:100060000C9446000C94460011241FBECFEFD8E03C
:10007000DEBFCDBF21E0A0E0B1E001C01D92A23003
:10008000B207E1F70E9463000C9485000C94000015
:100090001092C50087E68093C40088E98093C10070
:1000A00086E08093C2000895F8948FEF84B915B864
:1000B0000E944800789408959091C00095FFFCCF6D
:1000C0008093C60008950E94540081E40E945C0061
:1000D000809100018823E1F38091010185B910929C
:1000E0000001F6CF1F920F920FB60F9211248F933B
:1000F0008091C6008093010181E0809300018F917F
:0E0100000F900FBE0F901F901895F894FFCF30
:00000001FF
