:020000020000FC
:040000000C942D002F
:100040000C94D1003F065B4F666D7D077F6F1F1CD0
:100050001F1E1F1E1F1F1E1F1E1F0FEF0DBF08E0BC
:100060000EBF0FE70AB90FE104B900E007B901E0DC
:100070000093000101E00093010100E00093020100
:10008000009303010093040100930501009306010E
:100090000093070101E00093080100930901009318
:1000A0000A0110E020E030E040E00E94C9007894AE
:1000B00002E0009368000CE300936C0006B102FFBD
:1000C0000BC000910801003021F000E0009308010E
:1000D00003C001E00093080100910801003019F00D
:1000E0000E94A700EBCF0E947600E8CF00910001AC
:1000F0000E94B600302F009100010E94BF00402FE7
:10010000009101010E94B600502F009101010E9450
:10011000BF00602F032F0E94B0002B9A0E94C500E1
:100120002B98042F0E94B0002A9A0E94C5002A989A
:10013000052F0E94B000299A0E94C5002998062F19
:100140000E94B000289A0E94C500289808950E9435
:1001500043010E9471010E947E010E948B0108955B
:10016000F0E0E4E4E00F04910BB908951AE02227CF
:100170002395011BE8F72A95010F022F08951AE035
:100180000A3010F0011BFCCF089502E30A95F1F745
:10019000089505E005BD00E006BD01E000936E0096
:1001A00008950F930FB70F9300E006BD009106016D
:1001B0000395009306010D3379F400E000930601E6
:1001C000009107010395009307010C3329F400E027
:1001D000009307010E940101009106010E3169F4AC
:1001E00000910901003029F02C9800E000930901EA
:1001F00004C02C9A01E0009309010F910FBF0F91E9
:10020000189500910201093021F003950093020135
:10021000089500E00093020100910301053021F0F0
:10022000039500930301089500E0009303010091FA
:100230000501023041F4009104010330D9F0039527
:1002400000930401089500910401093021F0039501
:1002500000930401089500E000930401009105015A
:10026000013021F0039500930501089502E0009309
:100270000501089500E00093040100E000930501EA
:100280000E94500108952B982A9829982898109137
:100290000201F0E0E4E4E10F14911BB9289A0895FB
:1002A000009101010A95F0E0EEE4E00F14910130B5
:1002B00001F400910001011770F001E000930001CA
:1002C000009101010395009301010D3048F001E018
:1002D0000093010105C00091000103950093000106
:1002E00008952B982A982998289820910301F0E0E6
:1002F000E4E4E20F24912BB9299A08952B982A98C7
:100300002998289810910401F0E0E4E4E10F149199
:100310001BB92A9A08952B982A98299828982091F1
:100320000501F0E0E4E4E20F24912BB92B9A089543
:00000001FF
