:100000000C9434000C9446000C9446000C9446006A
:100010000C9446000C9446000C9446000C94460048
:100020000C9446000C9446000C9446000C94460038
:100030000C9446000C9446000C9446000C94460028
:100040000C94BC000C9446000C9446000C944600A2
:100050000C9446000C9446000C9446000C94460008
:100060000C9446000C94460011241FBECFEFD8E03C
:10007000DEBFCDBF21E0A0E0B1E001C01D92A630FF
:10008000B207E1F70E94B9000C9457010C940000EC
:100090008091040180FF04C085B1806185B903C0EF
:1000A00085B18F7E85B98091040181FF04C085B13F
:1000B000806285B903C085B18F7D85B980910401C7
:1000C00082FF04C088B1816088B903C088B18E7F87
:1000D00088B98091040183FF04C088B1826088B927
:1000E00003C088B18D7F88B98091040184FF04C06A
:1000F00088B1846088B903C088B18B7F88B980914A
:10010000040185FF04C088B1886088B903C088B144
:10011000877F88B98091040186FF04C088B180611F
:1001200088B903C088B18F7E88B980910401882383
:1001300024F488B1806288B9089588B18F7D88B928
:100140000895F89484B1806384B987B18F6387B9C7
:1001500085B1837F85B914BC85E085BD84E686BD05
:1001600081E080936E00109205010E94480078940F
:1001700008950E94A100FFCF1F920F920FB60F9219
:1001800011242F933F934F935F936F937F938F939C
:100190009F93AF93BF93EF93FF9384E686BD8091C7
:1001A00005018F5F80930501823309F06FC01092C3
:1001B00005011B9B06C080910101833020F080E087
:1001C00003C080E001C081E0882359F080910101E3
:1001D0008F5F809301018330A9F481E08093030154
:1001E00011C01B9904C090910101911181E08823F5
:1001F00049F080910101815080930101811102C079
:10020000109203011A9B06C080910001833020F0F8
:1002100080E003C080E001C081E0882359F0809134
:1002200000018F5F809300018330A9F481E0809307
:10023000020111C01A9904C090910001911181E04E
:10024000882349F080910001815080930001811141
:1002500002C01092020180910301882351F0809125
:1002600004018F5F809304010E94480010920301F3
:100270000DC080910201882349F0809104018150D2
:10028000809304010E94480010920201FF91EF91B7
:10029000BF91AF919F918F917F916F915F914F919E
:1002A0003F912F910F900FBE0F901F901895F894CB
:0202B000FFCF7E
:00000001FF
