S0120000504F53542D4C414220362E737265637A
S11300000C9434000C9451000C9451000C94510045
S11300100C9451000C9451000C9451000C94510018
S11300200C9451000C9451000C9451000C94510008
S11300300C9451000C9451000C9451000C945100F8
S11300400C9451000C9451000C9462010C945100D6
S11300500C9451000C9451000C9451000C945100D8
S11300600C9451000C94510011241FBECFEFD8E022
S1130070DEBFCDBF12E0A0E0B1E0E2ECF8E002C0E8
S113008005900D92AA35B107D9F722E0AAE5B2E0AE
S113009001C01D92AC35B207E1F70E945B010C94DC
S11300A05F040C9400001092C50087E68093C4009E
S11300B088E98093C10086E08093C20008959091FE
S11300C0C00095FFFCCF8093C60008950F931F9343
S11300D0CF938C01C0E003C00E945F00CF5FF801A2
S11300E0EC0FF11D80818111F7CFCF911F910F91FA
S11300F0089580E480937C0087E880937A000895D3
S1130100F8948FEF84B915B80E9453000E947900C7
S113011078940895ECE7F0E09081907F8F70892BBC
S11301208083EAE7F0E080818064808380917A00B4
S113013086FDFCCF8091780090917900089580E04D
S113014091E00E9466008FE191E00E9466008EE3D8
S113015091E00E94660089E591E00E94660008959E
S11301600F931F93CF93DF93CDB7DEB764970FB68A
S1130170F894DEBF0FBECDBF87E791E00E94660012
S11301808CE991E00E94660086E00E948A009C014E
S1130190369527953695279525B933273F932F9381
S11301A09F938F938CED91E09F938F938E010F5FBC
S11301B01F4F1F930F930E947501C8010E94660090
S11301C080915A020FB6F894DEBF0FBECDBF8823CC
S11301D019F010925A0207C087EA91E60197F1F7E5
S11301E000C00000D1CF64960FB6F894DEBF0FBEF6
S11301F0CDBFDF91CF911F910F9108950F931F935E
S1130200CF93DF93CDB7DEB72A970FB6F894DEBF4E
S11302100FBECDBF10925A0280915A028823E1F397
S113022080915B02813319F0823321F035C00E9442
S1130230B00036C084EF91E00E94660010925A022A
S113024080915A028823E1F380915B0285B982E1AF
S113025092E00E94660080915B020E945F0088E247
S113026092E00E94660080915B021F928F9383E468
S113027092E09F938F938E010F5F1F4F1F930F93F5
S11302800E947501C8010E9466000F900F900F90A4
S11302900F900F900F9004C086E492E00E946600D5
S11302A02A960FB6F894DEBF0FBECDBFDF91CF9173
S11302B01F910F9108950E9480000E949F000E9448
S11302C0FE00FBCF1F920F920FB60F9211248F9353
S11302D08091C60080935B0281E080935A028F91E3
S11302E00F900FBE0F901F901895AEE0B0E0EBE7B3
S11302F0F1E00C9436040D891E8986E08C831A8300
S113030009838FEF9FE79E838D83AE01475E5F4F26
S11303106F89788DCE0101960E949701EF81F8854F
S1130320E00FF11F10822E96E4E00C945204ABE02F
S1130330B0E0EDE9F1E00C9428046C017B018A0142
S1130340FC0117821682838181FFCCC1CE01019604
S11303503C01F6019381F70193FD859193FF81910F
S11303607F01882309F4BAC1853239F493FD85915C
S113037093FF81917F01853229F4B60190E00E94B8
S11303808E03E7CF912C212C312CFFE1F315D8F00B
S11303908B3279F038F4803279F08332A1F4232D52
S11303A020611DC08D3261F0803369F4232D2160FA
S11303B016C0832D8260382EE32DE4603E2E2AC0C1
S11303C0F32DF8601DC037FC2DC020ED280F2A3016
S11303D040F08E32B9F436FC81C1232D2064322ED4
S11303E019C036FE06C08AE0989E200D1124922E74
S11303F011C0EAE02E9E200D1124222EF32DF0626E
S11304003F2E08C08C3621F4832D8068382E02C01C
S1130410883641F4F70193FD859193FF81917F0123
S11304208111B3CF982F9F7D9554933028F40C5F9E
S11304301F4F9FE399830DC0833631F0833771F0EA
S1130440833509F059C021C0F801808189830E5F8A
S11304501F4F88248394912C530113C02801F2E088
S11304604F0E511CF801A080B18036FE03C0692DE7
S113047070E002C06FEF7FEFC5010E9483034C015F
S11304808201F32DFF773F2E16C0280122E0420E91
S1130490511CF801A080B18036FE03C0692D70E0C4
S11304A002C06FEF7FEFC5010E9478034C01F32D6A
S11304B0F0683F2E820133FC1BC0822D90E0881629
S11304C09906B0F4B60180E290E00E948E032A946B
S11304D0F4CFF50137FC859137FE81915F01B601B8
S11304E090E00E948E0321102A9421E0821A910840
S11304F08114910471F7E8C0843611F0893641F50E
S1130500F80137FE07C060817181828193810C5F9D
S11305101F4F08C060817181072E000C880B990B56
S11305200E5F1F4FF32DFF763F2E97FF09C0909566
S11305308095709561957F4F8F4F9F4FF0683F2E48
S11305402AE030E0A3010E94CA03882E861845C021
S1130550853731F4232D2F7EB22E2AE030E025C0DA
S1130560932D997FB92E8F36C1F018F4883579F020
S1130570B5C0803719F0883721F0B0C0E92FE061A9
S1130580BE2EB4FE0DC0FB2DF460BF2E09C034FE98
S11305900AC0292F2660B22E06C028E030E005C02C
S11305A020E130E002C020E132E0F801B7FE07C0EC
S11305B060817181828193810C5F1F4F06C06081CD
S11305C0718180E090E00E5F1F4FA3010E94CA0377
S11305D0882E8618FB2DFF773F2E36FE0DC0232D67
S11305E02E7FA22E891458F434FE0BC032FC09C0AD
S11305F0832D8E7EA82E05C0B82CA32C03C0B82C46
S113060001C0B92CA4FE0FC0FE01E80DF11D8081CC
S1130610803321F49A2D997EA92E09C0A2FE06C02A
S1130620B394B39404C08A2D867809F0B394A3FCE0
S113063011C0A0FE06C0B21488F4280C922C9B189A
S11306400EC0B21460F4B60180E290E00E948E0302
S1130650B394F7CFB21418F42B1802C0982C212CA1
S1130660A4FE10C0B60180E390E00E948E03A2FEB7
S113067017C0A1FC03C088E790E002C088E590E0C1
S1130680B6010CC08A2D867859F0A1FE02C08BE217
S113069001C080E2A7FC8DE2B60190E00E948E03C7
S11306A0891438F4B60180E390E00E948E039A9492
S11306B0F7CF8A94F301E80DF11D8081B60190E033
S11306C00E948E038110F5CF222009F442CEB60198
S11306D080E290E00E948E032A94F6CFF601868190
S11306E0978102C08FEF9FEF2B96E2E10C944404B4
S11306F0FC010590615070400110D8F780959095E9
S11307008E0F9F1F0895FC016150704001900110ED
S1130710D8F7809590958E0F9F1F08950F931F9380
S1130720CF93DF93FB01238121FD03C08FEF9FEF64
S11307302CC022FF16C0468157812481358142177F
S1130740530744F4A081B1819D012F5F3F4F318352
S113075020838C93268137812F5F3F4F37832683F5
S113076014C08B01EC01FB010084F185E02D099597
S1130770892BE1F6D80116968D919C9117970196D5
S113078017969C938E931697CE01DF91CF911F916C
S11307900F910895FA01AA27283051F1203181F1EF
S11307A0E8946F936E7F6E5F7F4F8F4F9F4FAF4F75
S11307B0B1E03ED0B4E03CD0670F781F891F9A1F88
S11307C0A11D680F791F8A1F911DA11D6A0F711D3C
S11307D0811D911DA11D20D009F468943F912AE048
S11307E0269F11243019305D3193DEF6CF01089530
S11307F0462F4770405D4193B3E00FD0C9F7F6CF61
S1130800462F4F70405D4A3318F0495D31FD405228
S1130810419302D0A9F7EACFB4E0A69597958795BE
S113082077956795BA95C9F700976105710508959D
S11308309B01AC010A2E0694579547953795279549
S1130840BA95C9F7620F731F841F951FA01D0895E1
S11308502F923F924F925F926F927F928F929F92CC
S1130860AF92BF92CF92DF92EF92FF920F931F93BA
S1130870CF93DF93CDB7DEB7CA1BDB0B0FB6F8946B
S1130880DEBF0FBECDBF09942A88398848885F84AB
S11308906E847D848C849B84AA84B984C884DF801C
S11308A0EE80FD800C811B81AA81B981CE0FD11D00
S11308B00FB6F894DEBF0FBECDBFED010895F894D6
S10508C0FFCF64
S11308C20A0D3D3D3D3D3D204D454E55205052497A
S11308D24E434950414C203D3D3D3D3D0A0D0031C2
S11308E22E204C65657220506F74656E63696F6D5E
S11308F26574726F202841444336290A0D00322E52
S113090220456E76696172206361726163746572F7
S11309122041534349490A0D0053656C6563636979
S11309226F6E6520756E61206F7063696F6E20282B
S1130932312D32293A20000A0D4C6579656E646FB7
S113094220706F74656E63696F6D6574726F206574
S11309526E20414443362E2E2E0A0D0047697265DD
S113096220656C20706F74656E63696F6D65747257
S11309726F20792070726573696F6E65206375618B
S11309826C7175696572207465636C612070617243
S11309926120646574656E65720A0D004144433AD0
S11309A22025346420204C4544733A203078253085
S11309B232580D000A0D496E677265736520756EB3
S11309C22063617261637465722041534349493AF9
S11309D220000A0D4361726163746572207265635B
S11309E2696269646F3A20000A0D56616C6F722065
S11309F26D6F73747261646F20656E204C4544732D
S1130A023A20002564000A0D4F7063696F6E2069F5
S10D0A126E76616C696461210000D6
S9030000FC
