:020000020000FC
:040000000C94270035
:100040000C949A003F065B4F666D7D077F6F0FEF44
:100050000DBF08E00EBF0FE70AB90FE304B900E0D7
:10006000009300010093010100930201009303013A
:10007000009304010093050110E020E030E040E02F
:100080000E94920078940E94B2000E94BF000E94D9
:10009000CC000E94D900409105014230A1F74427CD
:1000A0004093050100910001093021F00395009370
:1000B0000001E9CF00E0009300010091010105304B
:1000C00021F0039500930101DECF00E000930101D0
:1000D00000910301023041F4009102010330D9F094
:1000E000039500930201CFCF00910201093021F066
:1000F000039500930201C7CF00E000930201009135
:100100000301013021F0039500930301BCCF02E00D
:1001100000930301B8CF00E00093020100E00093D8
:100120000301B1CF05E005BD00E006BD01E000938D
:100130006E0008950F930FB70F9300E006BD009176
:100140000401039500930401023041F400E00093A0
:100150000401009105010395009305010F910FBF64
:100160000F9118952B982A9829982898109100019A
:10017000F0E0E4E4E10F14911BB9289A08952B985C
:100180002A982998289820910101F0E0E4E4E20FF0
:1001900024912BB9299A08952B982A982998289860
:1001A00010910201F0E0E4E4E10F14911BB92A9AE6
:1001B00008952B982A982998289820910301F0E017
:0C01C000E4E4E20F24912BB92B9A08957F
:00000001FF
