S00E0000454550524F4D2E737265634E
S11300000C9434000C9449000C9449000C9449005D
S11300100C9449000C9449000C9449000C94490038
S11300200C9449000C9449000C9449000C94490028
S11300300C9449000C9449000C9449000C94490018
S11300400C9449000C9449000C9449000C94490008
S11300500C9449000C9449000C9449000C944900F8
S11300600C9449000C94490011241FBECFEFD8E032
S1130070DEBFCDBF12E0A0E0B1E0E2EEF6E002C0E8
S113008005900D92A834B107D9F70E94B9010C94D8
S11300906F030C940000CF93DF9300D000D0CDB752
S11300A0DEB7382F20E066C02130F9F030F022307E
S11300B0A1F1233009F447C05CC0409188005091FD
S11300C0890064EB649FC001659F900D11248054E6
S11300D09E4762EB7CE00E947C02E1E0F0E0EC0FE2
S11300E0FD1FE20FF11D608344C040918A005091CE
S11300F08B0064EB649FC001659F900D11248054B4
S11301009E4762EB7CE00E947C02E1E0F0E0EC0FB1
S1130110FD1FE20FF11D60832CC048B550E044512F
S1130120510964EB649FC001659F900D112463E243
S113013070E00E949002E1E0F0E0EC0FFD1FE20F9E
S1130140F11D608316C04091B40050E04451510940
S113015064EB649FC001659F900D112463E270E01D
S11301600E949002E1E0F0E0EC0FFD1FE20FF11DB0
S113017060832F5F243008F497CF632F70E0660FFD
S1130180771F660F771F44E050E0CE0101960E946E
S113019057030F900F900F900F90DF91CF91089518
S11301A01092C50087E68093C40088E18093C10063
S11301B086E08093C20008959091C00095FFFCCF23
S11301C08093C6000895CF93DF93EC0103C021967A
S11301D00E94DC0088818111FACFDF91CF910895CC
S11301E080E091E00E94E30088E191E00E94E30056
S11301F08CE391E00E94E30089E691E00E94E30031
S113020084E991E00E94E3000895CF93DF9300D046
S113021000D0CDB7DEB74AE0BE016F5F7F4F90E0FC
S11302200E940A03CE0101960E94E3000F900F90F2
S11302300F900F90DF91CF91089584B1866084B9B7
S11302408AB188628AB982EA809380008AE18093C5
S113025081008FE39CE9909387008093860088EB6C
S11302609BE0909389008093880090938B00809307
S11302708A0093E294BD85E085BD86E288BD9093B3
S1130280B00097E09093B1008093B4000895653B6B
S113029008F064EB8130C9F028F0823049F18330F2
S11302A091F10895262F30E0A2EBBCE00E94C60233
S11302B024EB30E040E050E00E94A4022053384F89
S11302C030938900209388000895262F30E0A2EB14
S11302D0BCE00E94C60224EB30E040E050E00E9403
S11302E0A4022053384F30938B0020938A00089542
S11302F023E2629FC001112464EB70E00E9490022B
S11303006C5E68BD089523E2629FC0011124E4EB92
S1130310F0E0BF010E9490026C5E608308951F9319
S1130320CF93DF9300D000D0CDB7DEB7682F70E055
S1130330660F771F660F771F44E050E0CE010196E9
S11303400E94470310E00BC0E1E0F0E0EC0FFD1F5A
S1130350E10FF11D6081812F0E9447011F5F14305E
S113036098F30F900F900F900F90DF91CF911F9102
S11303700895CF93DF93CDB7DEB760970FB6F894A7
S1130380DEBF0FBECDBF0E94D0000E941D0182EBD4
S113039091E00E94E3000E94F00000E007C000E04A
S11303A005C000E003C000E001C000E08091C0008F
S11303B08823E4F71091C600812F0E94DC001D30D1
S11303C019F01A3009F08CC0E1E0F0E0EC0FFD1FE9
S11303D0E00FF11D108263ED71E0CE0101960E94E1
S11303E0F302892B21F40E94F00000E0DFCF198191
S11303F0133509F5DE011196FD0101900020E9F79E
S11304003197EA1BFB0B3397B0F08B818D3399F452
S11304101A811153CE0104960E94D502143008F0BB
S1130420BECF682F812F0E94470188ED91E00E9482
S1130430E30000E0BBCF44E050E06FEE71E0CE019A
S113044001960E94FC02892BE1F4DE011196FD0164
S113045001900020E9F73197EA1BFB0B359789F4EB
S11304601D8110531A3008F09CCF812F0E944B003D
S113047084EF91E00E94E300812F0E94050100E0D7
S113048095CF44E050E061E172E0CE0101960E9414
S1130490FC02892BE1F4DE011196FD01019000209C
S11304A0E9F73197EA1BFB0B359789F41D8110534B
S11304B01A3008F078CF812F0E948F0186E192E0F4
S11304C00E94E300812F0E94050100E06FCF1123F9
S11304D009F46BCF80E392E00E94E30000E066CF72
S11304E00F3008F063CFE1E0F0E0EC0FFD1FE00F08
S11304F0F11D10830F5F5ACFAA1BBB1B51E107C02C
S1130500AA1FBB1FA617B70710F0A61BB70B881F9F
S1130510991F5A95A9F780959095BC01CD0108952E
S113052097FB072E16F4009407D077FD09D00E949C
S11305307C0207FC05D03EF4909581959F4F089569
S1130540709561957F4F0895A1E21A2EAA1BBB1BDB
S1130550FD010DC0AA1FBB1FEE1FFF1FA217B3078B
S1130560E407F50720F0A21BB30BE40BF50B661FA1
S1130570771F881F991F1A9469F760957095809565
S113058090959B01AC01BD01CF010895A29FB001DC
S1130590B39FC001A39F700D811D1124911DB29FB3
S11305A0700D811D1124911D0895FC018827992740
S11305B0E89421912032E9F3293010F02E30C8F369
S11305C02B3241F02D3239F4689404C00E94150393
S11305D0820F911D219120532A30C0F31EF490956F
S11305E081959F4F0895FB01DC018D910190801945
S11305F00110D9F3990B0895FB01DC0141505040DF
S113060030F08D910190801919F40020B9F7881BFE
S1130610990B0895BB274A3031F4992322F4BDE2A3
S1130620909581959F4F0C941E037AE0979F902D8F
S1130630879F802D910D11240895BB27FB01552719
S1130640AA27880F991FAA1FA41710F0A41B83952B
S11306505051B9F7A05DAA3308F0A95DA1930097A2
S113066079F7B111B1931192CB010C943703DC01EA
S1130670FC01672F71917723E1F7329704C07C91D5
S11306806D9370836291AE17BF07C8F30895DC01C0
S1130690CB01FC01F999FECF06C0F2BDE1BDF89A89
S11306A0319600B40D9241505040B8F70895DC01E2
S11306B0CB0103C02D910E94620341505040D0F7FA
S11306C00895262FF999FECF1FBA92BD81BD20BD92
S11306D00FB6F894FA9AF99A0FBE01960895F89411
S10506E0FFCF46
S11306E20D0A436F6D616E646F7320646973706F7A
S11306F26E69626C65733A000D0A53313D393020DC
S11307022D204D6F76657220736572766F203120CD
S11307126120393020677261646F73000D0A53419E
S1130722564531202D204775617264617220706FC5
S1130732736963696F6E657320656E20736C6F7481
S113074220312028302D3929000D0A504C415931CD
S1130752202D20526570726F647563697220706F08
S1130762736963696F6E65732064656C20736C6F63
S1130772742031000D0A48454C50202D204D6F73D2
S11307827472617220657374612061797564610D9C
S11307920A000D0A53697374656D612064652073E0
S11307A26572766F7320636F6E20454550524F4DCC
S11307B20D0A0048454C50000D0A506F7369636975
S11307C26F6E2061637475616C697A616461005350
S11307D2415645000D0A506F736963696F6E206755
S11307E27561726461646120656E20736C6F74203C
S11307F200504C4159000D0A526570726F64756362
S113080269656E646F20706F736963696F6E20002F
S11308120D0A436F6D616E646F206E6F20726563A3
S10B08226F6E6F6369646F00DF
S9030000FC
