S016000033204D4F444F53204A554E544F532E7372656336
S11300000C9434000C9451000C9451000C94510045
S11300100C9451000C9451000C9451000C94510018
S11300200C9451000C9451000C9451000C94510008
S11300300C9451000C9451000C9451000C945100F8
S11300400C9451000C9451000C94E3030C94510053
S11300500C9451000C94E8000C9451000C94510041
S11300600C9451000C94510011241FBECFEFD8E022
S1130070DEBFCDBF13E0A0E0B1E0E0EAFBE002C0E8
S113008005900D92A835B107D9F723E0A8E5B3E0B0
S113009001C01D92AC39B207E1F70E9494020C949E
S11300A0CE050C9400008091720390E0019663E009
S11300B070E00E949D0480937203089585B18E7F41
S11300C085B98BB18F738BB980917203813041F004
S11300D018F0823049F0089585B1816085B908959A
S11300E08BB180688BB908958BB180648BB9089506
S11300F0EAE7F0E08FE880838FE080937E0080E47D
S113010080937C0010927B0088B1806F88B98081D5
S11301108064808308958F929F92AF92BF92CF9212
S1130120DF92EF92FF920F93282F30E080917003BB
S113013090E04091780050917900F901EE0FFF1F93
S1130140E20FF31FE80FF91FEE0FFF1FE85AFC4FF1
S113015051834083019663E070E00E949D04809384
S1130160700340E060E070E0CB0113C0F901EE0FD2
S1130170FF1FE20FF31FE40FF11DEE0FFF1FE85AFC
S1130180FC4F0190F081E02D6E0F7F1F811D911DAA
S11301904F5F433058F32BEA3AEA4AEA5AEA0E949C
S11301A0E20400E20E940F05822E932EA42EB52EA7
S11301B0D501C401B695A795979587950F91FF90A2
S11301C0EF90DF90CF90BF90AF909F908F90089565
S11301D01F920F920FB60F921124CF92DF92EF92DB
S11301E0FF922F933F934F935F936F937F938F93DC
S11301F09F93AF93BF93CF93DF93EF93FF9380913C
S11302007203811167C0C0917303D0E080917303BE
S11302100E948B00CC0FDD1FCC56DC4F9983888362
S11302208091730390E0019683709078992324F46D
S113023001978C6F9F6F0196809373038091730372
S11302408C5F806480937C00C4E9D3E02E813F817D
S1130250A0EABFE00E94D3040F2ECC24CA94F3E09A
S1130260DF2EE12CF12CF02DA70196010E94B104A0
S113027028513C4F30938900209388002C813D8184
S1130280A2EBBCE00E94D304A70196010E94B10432
S11302902053384F30938B0020938A002A813B816E
S11302A043E2429FC001439F900D11242FEF33E09E
S11302B0B9010E948904665E68BD68817981469FA0
S11302C0C001479F900D1124B9010E948904665E04
S11302D06093B400EAE7F0E0808180648083FF915A
S11302E0EF91DF91CF91BF91AF919F918F917F91CA
S11302F06F915F914F913F912F91FF90EF90DF901D
S1130300CF900F900FBE0F901F901895CF93DF934F
S113031000D000D0CDB7DEB7382F20E066C0213042
S1130320F9F030F02230A1F1233009F447C05CC069
S1130330409188005091890064EB649FC001659FDF
S1130340900D112480549E4762EB7CE00E94890446
S1130350E1E0F0E0EC0FFD1FE20FF11D608344C00B
S113036040918A0050918B0064EB649FC001659FAB
S1130370900D112480549E4762EB7CE00E94890416
S1130380E1E0F0E0EC0FFD1FE20FF11D60832CC0F3
S113039048B550E04451510964EB649FC001659F26
S11303A0900D112463E270E00E949D04E1E0F0E00E
S11303B0EC0FFD1FE20FF11D608316C04091B400E5
S11303C050E04451510964EB649FC001659F900D56
S11303D0112463E270E00E949D04E1E0F0E0EC0F80
S11303E0FD1FE20FF11D60832F5F243008F497CFC7
S11303F0632F70E0660F771F660F771F44E050E0AD
S1130400CE0101960E94B6050F900F900F900F90A9
S1130410DF91CF9108951092C50087E68093C400C0
S113042088E98093C10086E08093C200089590918A
S1130430C00095FFFCCF8093C6000895CF93DF934F
S1130440EC0103C021960E94170288818111FACF22
S1130450DF91CF91089580E091E00E941E0281E235
S113046091E00E941E028DE491E00E941E028EE53E
S113047091E00E941E0284E891E00E941E0283EB38
S113048091E00E941E0280EE91E00E941E0281E132
S113049092E00E941E020895CF93DF9300D000D013
S11304A0CDB7DEB74AE0BE016F5F7F4F90E00E9498
S11304B06905CE0101960E941E020F900F900F90C5
S11304C00F90DF91CF91089584B1866084B98AB189
S11304D088628AB982EA809380008AE180938100ED
S11304E08FE39CE99093870080938600A8E8B0E0AE
S11304F088EB9BE011969C938E93EAE8F0E091835D
S1130500808321E224BD34E035BD2093B00026E091
S11305102093B10011969C938E939183808386E2FD
S113052088BD8093B400089584B1816084B98AB190
S1130530806C8AB984B18F7D84B985B18F7D85B98A
S11305400E940B020E9464020E9478008FE292E0F3
S11305500E941E028DE592E00E941E0283E792E053
S11305600E941E020E942B020E945E0078941D9934
S11305703BC02FEF80E792E0215080409040E1F7AC
S113058000C000001D9BFECFAFEFB0E722E0A150FA
S1130590B0402040E1F700C000000E9453000E94D8
S11305A05E0080E2E4E7F3E0DF011D928A95E9F75B
S11305B0109271038CE992E00E941E0280917203F2
S11305C0813049F018F0823059F00EC08AE692E08A
S11305D00E941E0209C080EB92E00E941E0204C029
S11305E08BEB92E00E941E0280917203C0CF653BA8
S11305F008F064EB8130C9F028F0823049F183308F
S113060091F10895262F30E0A0EDB7E00E94D304C5
S113061024EB30E040E050E00E94B1042053384F16
S113062030938900209388000895262F30E0A0EDB0
S1130630B7E00E94D30424EB30E040E050E00E9495
S1130640B1042053384F30938B0020938A000895CF
S11306502DE0629FC001112464EB70E00E949D04B0
S1130660635F68BD08952DE0629FC0011124E4EB2F
S1130670F0E0BF010E949D04635F608308951F93AF
S1130680CF93DF9300D000D0CDB7DEB7682F70E0F2
S1130690660F771F660F771F44E050E0CE01019686
S11306A00E94A60510E00BC0E1E0F0E0EC0FFD1F96
S11306B0E10FF11D6081812F0E94F7021F5F14304A
S11306C098F30F900F900F900F90DF91CF911F919F
S11306D008951F93CF93DF93EC016BED72E00E94BA
S11306E05205892B19F40E942B0269C01881133515
S11306F0F1F4FE0101900020E9F73197EC1BFD0BAA
S11307003397A8F08A818D3391F419811153CE0166
S113071003960E943405143008F051C0682F812FCD
S11307200E94F70280EE92E00E941E0248C044E05C
S113073050E067EF72E0CE010E945B05892BC1F4A3
S1130740FE0101900020E9F73197EC1BFD0B359772
S113075079F4CC81C053CA3090F58C2F0E94860165
S11307608CEF92E00E941E028C2F0E944C0227C044
S113077044E050E069E173E0CE010E945B05892BFF
S1130780C1F4FE0101900020E9F73197EC1BFD0B49
S1130790359779F4CC81C053CA3088F48C2F0E94E9
S11307A03F038EE193E00E941E028C2F0E944C02B4
S11307B006C0112321F088E393E00E941E02DF911A
S11307C0CF911F9108951F920F920FB60F9211248B
S11307D02F933F934F935F936F937F938F939F9345
S11307E0AF93BF93CF93EF93FF93C091C6008091D3
S11307F07203813091F5CD3029F0CA3019F08C2F75
S11308000E941702CD3011F0CA30A1F48091710317
S1130810E82FF0E0EC58FC4F1082882341F084E785
S113082093E00E94690386EB92E00E941E021092FC
S113083071035DC0E0917103EF3108F058C08FE996
S11308408C0F8A3108F4C05281E08E0F80937103BB
S1130850F0E0EC58FC4FC0834AC0809172038230B0
S113086009F045C0CD3011F0CA30A9F5809171036B
S1130870E82FF0E0EC58FC4F1082882349F1809176
S11308807403833529F5C0917503C153C43000F551
S1130890809176038D33E1F487E793E00E94340579
S11308A0682F8C2F0E94F70280E593E00E941E02BD
S11308B0809175030E94170285E593E00E941E0251
S11308C087E793E00E941E0289ED92E00E941E02D7
S11308D0109271030CC0E0917103EF3140F481E098
S11308E08E0F80937103F0E0EC58FC4FC083FF91AE
S11308F0EF91CF91BF91AF919F918F917F916F9124
S11309005F914F913F912F910F900FBE0F901F90C9
S11309101895AA1BBB1B51E107C0AA1FBB1FA61732
S1130920B70710F0A61BB70B881F991F5A95A9F794
S113093080959095BC01CD01089597FB072E16F480
S1130940009407D077FD09D00E94890407FC05D0E4
S11309503EF4909581959F4F0895709561957F4FD2
S11309600895A1E21A2EAA1BBB1BFD010DC0AA1FEC
S1130970BB1FEE1FFF1FA217B307E407F50720F004
S1130980A21BB30BE40BF50B661F771F881F991F7F
S11309901A9469F760957095809590959B01AC01C8
S11309A0BD01CF010895A29FB001B39FC001A39FD1
S11309B0700D811D1124911DB29F700D811D112494
S11309C0911D0895E894DF93CF93FC01DB010E940D
S11309D0D3047F936F93E9019A01AC01BF93AF9362
S11309E03F932F93DF010E94D30426F46C1B7D0BED
S11309F0820B930B9E01EB01FC010E942B05AF912E
S1130A00BF912F913F910E942B05BE01CF01F901A7
S1130A102F913F91CF91DF91089597FB10F8169491
S1130A2000080F93083098F00850232F342F452FD7
S1130A30562F672F782F892F902DF4CF05949795F3
S1130A4087957795679557954795379527950A958F
S1130A50AAF70F9108950E94D304460F571FC81F89
S1130A60D91F08F431960895FC0188279927E89442
S1130A7021912032E9F3293010F02E30C8F32B32C3
S1130A8041F02D3239F4689404C00E947405820F39
S1130A90911D219120532A30C0F31EF49095819525
S1130AA09F4F0895FB01DC018D9101908019011085
S1130AB0D9F3990B0895FB01DC014150504030F00B
S1130AC08D910190801919F40020B9F7881B990BB6
S1130AD00895BB274A3031F4992322F4BDE290955E
S1130AE081959F4F0C947D057AE0979F902D879F69
S1130AF0802D910D11240895BB27FB015527AA27AA
S1130B00880F991FAA1FA41710F0A41B8395505196
S1130B10B9F7A05DAA3308F0A95DA193009779F70E
S1130B20B111B1931192CB010C949605DC01FC0137
S1130B30672F71917723E1F7329704C07C916D930D
S1130B4070836291AE17BF07C8F30895DC01CB012F
S1130B50FC01F999FECF06C0F2BDE1BDF89A3196C9
S1130B6000B40D9241505040B8F70895DC01CB0118
S1130B7003C02D910E94C10541505040D0F7089503
S1130B80262FF999FECF1FBA92BD81BD20BD0FB6A5
S1130B90F894FA9AF99A0FBE01960895F894FFCF43
S1130BA00D0A436F6D616E646F7320646973706FB7
S1130BB06E69626C657320706F72206D6F646F3A3A
S1130BC0000D0A5B4D4F444F204D414E55414C5D45
S1130BD03A20436F6E74726F6C20706F7220706F66
S1130BE074656E6369F36D6574726F73000D0A5BEF
S1130BF04D4F444F20454550524F4D5D3A000D0A2C
S1130C00202053313D3930202D204D6F76657220E0
S1130C10736572766F2031206120393020677261EC
S1130C20646F73000D0A20205341564531202D2056
S1130C304775617264617220706F736963696F6E66
S1130C40657320656E20736C6F7420312028302DFD
S1130C503929000D0A2020504C415931202D2052B1
S1130C606570726F647563697220706F736963690C
S1130C706F6E65732064656C20736C6F7420310033
S1130C800D0A5B4D4F444F20554152545D3A204369
S1130C906F6E74726F6C206578636C757369766FB0
S1130CA02064657364652064617368626F61726453
S1130CB0000D0A48454C50202D204D6F737472610D
S1130CC07220657374612061797564610D0A000D89
S1130CD00A53697374656D6120646520636F6E7473
S1130CE0726F6C20646520736572766F73206D7506
S1130CF06C746966756E63696F6E0D0A004D6F647E
S1130D006F2061637475616C3A204D414E55414CBE
S1130D100D0A0050726573696F6E6520656C206200
S1130D206F746F6E20706172612063616D626961BE
S1130D3072206465206D6F646F0D0A000D0A4D6F9B
S1130D40646F2063616D626961646F20613A2000A1
S1130D50454550524F4D0D0A3E20005541525420F6
S1130D6028436F6E74726F6C2064657364652041F0
S1130D7064616672756974290D0A0048454C500017
S1130D800D0A506F736963696F6E206163747561D6
S1130D906C697A6164610053415645000D0A506FD5
S1130DA0736963696F6E2067756172646164612041
S1130DB0656E20736C6F742000504C4159000D0A0D
S1130DC0526570726F64756369656E646F20706FCD
S1130DD0736963696F6E20000D0A436F6D616E6401
S1130DE06F206E6F207265636F6E6F6369646F004E
S10B0DF04F4B2053003D0000AD
S9030000FC
