S00D00004C414220362E73726563F2
S11300000C9434000C9451000C9451000C94510045
S11300100C9451000C9451000C9451000C94510018
S11300200C9451000C9451000C9451000C94510008
S11300300C9451000C9451000C9451000C945100F8
S11300400C9451000C9451000C9495000C945100A4
S11300500C9451000C9451000C9451000C945100D8
S11300600C9451000C94510011241FBECFEFD8E022
S1130070DEBFCDBF11E0A0E0B1E0E4E5F1E002C0F5
S113008005900D92A232B107D9F721E0A2E2B1E0C6
S113009001C01D92A432B207E1F70E9481000C94C2
S11300A0A8000C9400001092C50087E68093C40059
S11300B088E98093C10086E08093C2000895F89493
S11300C08FEF84B915B80E945300789408959091E5
S11300D0C00095FFFCCF8093C60008950F931F9333
S11300E0CF938C01C0E003C00E946700CF5FF8018A
S11300F0EC0FF11D80818111F7CFCF911F910F91EA
S113010008950E945F0080E091E00E946E0080915B
S113011022018823E1F3809123010E9467008091EA
S1130120230185B910922201F2CF1F920F920FB6CC
S11301300F9211248F938091C6008093230181E054
S1130140809322018F910F900FBE0F901F901895EE
S1070150F894FFCF4D
S1130154486563746F7220657320656C206D656AED
S11301646F722064656C206D756E646F203A440A66
S10501740D0078
S9030000FC
