:100000000C9434000C9446000C9446000C9446006A
:100010000C9446000C9446000C9446000C94460048
:100020000C9446000C9446000C9446000C94460038
:100030000C9446000C9446000C9446000C94460028
:100040000C94A6010C9446000C9446000C944600B7
:100050000C9446000C947A000C9446000C944600D4
:100060000C9446000C94460011241FBECFEFD8E03C
:10007000DEBFCDBF21E0A0E0B1E001C01D92A23102
:10008000B207E1F70E9475000C94E4030C940000A1
:1000900087E00E943D0184B1866084B982EA809342
:1000A00080008AE1809381008FE39CE99093870030
:1000B0008093860088EB9BE0909389008093880072
:1000C00090938B0080938A0080E480937C00EAE721
:1000D000F0E08FE8808310927B0088B1806288B95D
:1000E000808180648083789408950E9448000E94F3
:1000F0006201FDCF1F920F920FB60F921124CF9283
:10010000DF92EF92FF920F931F932F933F934F93A2
:100110005F936F937F938F939F93AF93BF93CF938F
:10012000DF93EF93FF93E0910001F0E0809178007E
:1001300090917900EE0FFF1FE45FFE4F9183808363
:100140008091000190E0019663E070E00E948B03D3
:100150008093000180910001882331F0809100019B
:10016000813021F486E403C085E401C087E48093F4
:100170007C00CCE0D1E08881998196958795969511
:1001800087950E945F012A813B81A2EBBCE00E941F
:10019000C1030F2ECC24CA94F3E0DF2EE12CF12C06
:1001A000F02DA70196010E949F032053384F08E8C5
:1001B00010E0F801318320832C813D81A2EBBCE06B
:1001C0000E94C103A70196010E949F032053384F4C
:1001D00030938B0020938A00F80180819181803DCB
:1001E000974030F480ED97E09093890080938800E9
:1001F00080918800909189008338944130F082E8A2
:1002000094E1909389008093880080918A00909176
:100210008B00803D974030F480ED97E090938B0009
:1002200080938A0080918A0090918B00833894415A
:1002300030F082E894E190938B0080938A00EAE7A3
:10024000F0E0808180648083FF91EF91DF91CF9116
:10025000BF91AF919F918F917F916F915F914F91DE
:100260003F912F911F910F91FF90EF90DF90CF90D2
:100270000F900FBE0F901F9018954AB121E030E00B
:10028000B90102C0660F771F8A95E2F7462B4AB97B
:1002900060930B0114BC82E085BD81E080936E0009
:1002A00010920601109207011092080110920901A4
:1002B00010920A0110920501109204010895809392
:1002C0000A010895CF92DF92EF92FF92A89B39C066
:1002D00085B3816085BB80910201909103010196F5
:1002E00090930301809302010A9758F160910A01EB
:1002F000C0900601D0900701E0900801F09009013C
:1003000070E080E090E00E949202A70196010E94B6
:10031000F4012DEC3CEC4CEC5DE30E941E039B01D0
:10032000AC01C701B6010E94F5016093060170930C
:100330000701809308019093090110920301109224
:100340000201FF90EF90DF90CF9008951F920F92DF
:100350000FB60F9211242F933F934F935F936F9398
:100360007F938F939F93AF93BF93EF93FF9360918E
:1003700006017091070180910801909109010E9486
:100380006102623048F480910B0190E08095909575
:100390009BB189238BB917C080910101861730F476
:1003A00090910B018BB1892B8BB908C080910B0107
:1003B00090E0809590959BB189238BB98091010144
:1003C0008F5F80930101FF91EF91BF91AF919F915A
:1003D0008F917F916F915F914F913F912F910F90EE
:1003E0000FBE0F901F9018955058BB27AA270E9448
:1003F0000C020C94E4020E94D60238F00E94DD0246
:1004000020F039F49F3F19F426F40C94D3020EF433
:10041000E095E7FB0C94CD02E92F0E94F50258F31A
:10042000BA17620773078407950720F079F4A6F5D9
:100430000C9417030EF4E0950B2EBA2FA02D0B0190
:10044000B90190010C01CA01A0011124FF27591B19
:1004500099F0593F50F4503E68F11A16F040A22F1F
:10046000232F342F4427585FF3CF46953795279590
:10047000A795F0405395C9F77EF41F16BA0B620B8F
:10048000730B840BBAF09150A1F0FF0FBB1F661FD6
:10049000771F881FC2F70EC0BA0F621F731F841F19
:1004A00048F4879577956795B795F7959E3F08F03F
:1004B000B0CF9395880F08F09927EE0F9795879501
:1004C00008950E94FD0288F09F5798F0B92F992750
:1004D000B751B0F0E1F0660F771F881F991F1AF02F
:1004E000BA95C9F714C0B13091F00E941703B1E07A
:1004F00008950C941703672F782F8827B85F39F079
:10050000B93FCCF3869577956795B395D9F73EF4C7
:1005100090958095709561957F4F8F4F9F4F08956F
:10052000E89409C097FB3EF490958095709561958D
:100530007F4F8F4F9F4F9923A9F0F92F96E9BB2743
:100540009395F695879577956795B795F111F8CFBF
:10055000FAF4BB0F11F460FF1BC06F5F7F4F8F4F2A
:100560009F4F16C0882311F096E911C0772321F020
:100570009EE8872F762F05C0662371F096E8862FB8
:1005800070E060E02AF09A95660F771F881FDAF70F
:10059000880F9695879597F9089597F99F6780E852
:1005A00070E060E008959FEF80EC089500240A94C5
:1005B0001616170618060906089500240A9412163E
:1005C0001306140605060895092E0394000C11F471
:1005D000882352F0BB0F40F4BF2B11F460FF04C01E
:1005E0006F5F7F4F8F4F9F4F089557FD9058440F77
:1005F000551F59F05F3F71F04795880F97FB991F82
:1006000061F09F3F79F0879508951216130614063E
:10061000551FF2CF4695F1DF08C0161617061806CB
:10062000991FF1CF86957105610508940895E894A6
:10063000BB2766277727CB0197F908950E943103DE
:100640000C94E4020E94D60238F00E94DD0220F0F1
:10065000952311F00C94CD020C94D30211240C9428
:1006600018030E94F50270F3959FC1F3950F50E0B7
:10067000551F629FF001729FBB27F00DB11D639F54
:10068000AA27F00DB11DAA1F649F6627B00DA11DFA
:10069000661F829F2227B00DA11D621F739FB00DA0
:1006A000A11D621F839FA00D611D221F749F332710
:1006B000A00D611D231F849F600D211D822F762FA9
:1006C0006A2F11249F5750409AF0F1F088234AF086
:1006D000EE0FFF1FBB1F661F771F881F91505040F2
:1006E000A9F79E3F510580F00C94CD020C9418039D
:1006F0005F3FE4F3983ED4F3869577956795B79579
:10070000F795E7959F5FC1F7FE2B880F911D969592
:10071000879597F9089597FB072E16F4009407D054
:1007200077FD09D00E94D00307FC05D03EF49095D8
:1007300081959F4F0895709561957F4F0895A1E22F
:100740001A2EAA1BBB1BFD010DC0AA1FBB1FEE1F4B
:10075000FF1FA217B307E407F50720F0A21BB30B96
:10076000E40BF50B661F771F881F991F1A9469F712
:1007700060957095809590959B01AC01BD01CF016E
:100780000895A29FB001B39FC001A39F700D811D6A
:100790001124911DB29F700D811D1124911D08958A
:1007A000AA1BBB1B51E107C0AA1FBB1FA617B70797
:1007B00010F0A61BB70B881F991F5A95A9F78095B3
:0C07C0009095BC01CD010895F894FFCF86
:00000001FF
